{
  "contractName": "Voting",
  "abi": [
    {
      "inputs": [],
      "stateMutability": "nonpayable",
      "type": "constructor"
    },
    {
      "anonymous": false,
      "inputs": [
        {
          "indexed": false,
          "internalType": "uint256",
          "name": "candidateId",
          "type": "uint256"
        },
        {
          "indexed": false,
          "internalType": "string",
          "name": "name",
          "type": "string"
        },
        {
          "indexed": false,
          "internalType": "string",
          "name": "imagePath",
          "type": "string"
        }
      ],
      "name": "CandidateAdded",
      "type": "event"
    },
    {
      "anonymous": false,
      "inputs": [
        {
          "indexed": true,
          "internalType": "address",
          "name": "voter",
          "type": "address"
        },
        {
          "indexed": false,
          "internalType": "uint256",
          "name": "candidateId",
          "type": "uint256"
        }
      ],
      "name": "Voted",
      "type": "event"
    },
    {
      "inputs": [
        {
          "internalType": "uint256",
          "name": "",
          "type": "uint256"
        }
      ],
      "name": "candidates",
      "outputs": [
        {
          "internalType": "uint256",
          "name": "id",
          "type": "uint256"
        },
        {
          "internalType": "string",
          "name": "name",
          "type": "string"
        },
        {
          "internalType": "uint256",
          "name": "voteCount",
          "type": "uint256"
        },
        {
          "internalType": "string",
          "name": "imagePath",
          "type": "string"
        }
      ],
      "stateMutability": "view",
      "type": "function",
      "constant": true
    },
    {
      "inputs": [],
      "name": "candidatesCount",
      "outputs": [
        {
          "internalType": "uint256",
          "name": "",
          "type": "uint256"
        }
      ],
      "stateMutability": "view",
      "type": "function",
      "constant": true
    },
    {
      "inputs": [],
      "name": "owner",
      "outputs": [
        {
          "internalType": "address",
          "name": "",
          "type": "address"
        }
      ],
      "stateMutability": "view",
      "type": "function",
      "constant": true
    },
    {
      "inputs": [],
      "name": "totalVotes",
      "outputs": [
        {
          "internalType": "uint256",
          "name": "",
          "type": "uint256"
        }
      ],
      "stateMutability": "view",
      "type": "function",
      "constant": true
    },
    {
      "inputs": [
        {
          "internalType": "address",
          "name": "",
          "type": "address"
        }
      ],
      "name": "voters",
      "outputs": [
        {
          "internalType": "bool",
          "name": "",
          "type": "bool"
        }
      ],
      "stateMutability": "view",
      "type": "function",
      "constant": true
    },
    {
      "inputs": [
        {
          "internalType": "string",
          "name": "_name",
          "type": "string"
        },
        {
          "internalType": "string",
          "name": "_imagePath",
          "type": "string"
        }
      ],
      "name": "addNewCandidate",
      "outputs": [],
      "stateMutability": "nonpayable",
      "type": "function"
    },
    {
      "inputs": [
        {
          "internalType": "uint256",
          "name": "_candidateId",
          "type": "uint256"
        }
      ],
      "name": "vote",
      "outputs": [],
      "stateMutability": "nonpayable",
      "type": "function"
    },
    {
      "inputs": [],
      "name": "getCandidatesDetails",
      "outputs": [
        {
          "internalType": "uint256[]",
          "name": "",
          "type": "uint256[]"
        },
        {
          "internalType": "string[]",
          "name": "",
          "type": "string[]"
        },
        {
          "internalType": "uint256[]",
          "name": "",
          "type": "uint256[]"
        },
        {
          "internalType": "string[]",
          "name": "",
          "type": "string[]"
        }
      ],
      "stateMutability": "view",
      "type": "function",
      "constant": true
    }
  ],
  "bytecode": "0x60806040523480156200001157600080fd5b5033600460006101000a81548173ffffffffffffffffffffffffffffffffffffffff021916908373ffffffffffffffffffffffffffffffffffffffff160217905550620000cf6040518060400160405280600a81526020017f43616e64696461742031000000000000000000000000000000000000000000008152506040518060400160405280601581526020017f696d616765732f63616e646964617465312e6a70670000000000000000000000815250620002c560201b60201c565b6200014b6040518060400160405280600a81526020017f43616e64696461742032000000000000000000000000000000000000000000008152506040518060400160405280601581526020017f696d616765732f63616e646964617465322e6a70670000000000000000000000815250620002c560201b60201c565b620001c76040518060400160405280600a81526020017f43616e64696461742033000000000000000000000000000000000000000000008152506040518060400160405280601581526020017f696d616765732f63616e646964617465332e6a70670000000000000000000000815250620002c560201b60201c565b620002436040518060400160405280600a81526020017f43616e64696461742034000000000000000000000000000000000000000000008152506040518060400160405280601581526020017f696d616765732f63616e646964617465342e6a70670000000000000000000000815250620002c560201b60201c565b620002bf6040518060400160405280600a81526020017f43616e64696461742035000000000000000000000000000000000000000000008152506040518060400160405280601581526020017f696d616765732f63616e646964617465352e6a70670000000000000000000000815250620002c560201b60201c565b620007c7565b60008251116200030c576040517f08c379a00000000000000000000000000000000000000000000000000000000081526004016200030390620005e9565b60405180910390fd5b600081511162000353576040517f08c379a00000000000000000000000000000000000000000000000000000000081526004016200034a906200060b565b60405180910390fd5b6002600081548092919062000368906200070a565b91905055506040518060800160405280600254815260200183815260200160008152602001828152506000806002548152602001908152602001600020600082015181600001556020820151816001019080519060200190620003cd9291906200043d565b50604082015181600201556060820151816003019080519060200190620003f69291906200043d565b509050507fe64f834082661dd9ed89427b87edb6270fd6dad17198b0938f0edd058914c87f600254838360405162000431939291906200062d565b60405180910390a15050565b8280546200044b90620006d4565b90600052602060002090601f0160209004810192826200046f5760008555620004bb565b82601f106200048a57805160ff1916838001178555620004bb565b82800160010185558215620004bb579182015b82811115620004ba5782518255916020019190600101906200049d565b5b509050620004ca9190620004ce565b5090565b5b80821115620004e9576000816000905550600101620004cf565b5090565b6000620004fa8262000678565b62000506818562000683565b9350620005188185602086016200069e565b6200052381620007b6565b840191505092915050565b60006200053d601e8362000683565b91507f43616e646964617465206e616d652063616e6e6f7420626520656d70747900006000830152602082019050919050565b60006200057f60238362000683565b91507f43616e64696461746520696d616765506174682063616e6e6f7420626520656d60008301527f70747900000000000000000000000000000000000000000000000000000000006020830152604082019050919050565b620005e38162000694565b82525050565b6000602082019050818103600083015262000604816200052e565b9050919050565b60006020820190508181036000830152620006268162000570565b9050919050565b6000606082019050620006446000830186620005d8565b8181036020830152620006588185620004ed565b905081810360408301526200066e8184620004ed565b9050949350505050565b600081519050919050565b600082825260208201905092915050565b6000819050919050565b60005b83811015620006be578082015181840152602081019050620006a1565b83811115620006ce576000848401525b50505050565b60006002820490506001821680620006ed57607f821691505b6020821081141562000704576200070362000787565b5b50919050565b6000620007178262000694565b91507fffffffffffffffffffffffffffffffffffffffffffffffffffffffffffffffff8214156200074d576200074c62000758565b5b600182019050919050565b7f4e487b7100000000000000000000000000000000000000000000000000000000600052601160045260246000fd5b7f4e487b7100000000000000000000000000000000000000000000000000000000600052602260045260246000fd5b6000601f19601f8301169050919050565b61162080620007d76000396000f3fe608060405234801561001057600080fd5b50600436106100885760003560e01c80633477ee2e1161005b5780633477ee2e14610106578063577c689a146101395780638da5cb5b14610155578063a3ec138d1461017357610088565b80630121b93f1461008d5780630d15fd77146100a9578063103b5177146100c75780632d35a8a2146100e8575b600080fd5b6100a760048036038101906100a29190610d77565b6101a3565b005b6100b161036c565b6040516100be9190611210565b60405180910390f35b6100cf610372565b6040516100df94939291906110f4565b60405180910390f35b6100f0610819565b6040516100fd9190611210565b60405180910390f35b610120600480360381019061011b9190610d77565b61081f565b6040516101309493929190611270565b60405180910390f35b610153600480360381019061014e9190610d0b565b61095f565b005b61015d6109fd565b60405161016a91906110d9565b60405180910390f35b61018d60048036038101906101889190610ce2565b610a23565b60405161019a9190611155565b60405180910390f35b600160003373ffffffffffffffffffffffffffffffffffffffff1673ffffffffffffffffffffffffffffffffffffffff16815260200190815260200160002060009054906101000a900460ff1615610230576040517f08c379a000000000000000000000000000000000000000000000000000000000815260040161022790611170565b60405180910390fd5b60008111801561024257506002548111155b610281576040517f08c379a0000000000000000000000000000000000000000000000000000000008152600401610278906111b0565b60405180910390fd5b60018060003373ffffffffffffffffffffffffffffffffffffffff1673ffffffffffffffffffffffffffffffffffffffff16815260200190815260200160002060006101000a81548160ff02191690831515021790555060008082815260200190815260200160002060020160008154809291906102fe906114d5565b919050555060036000815480929190610316906114d5565b91905055503373ffffffffffffffffffffffffffffffffffffffff167f4d99b957a2bc29a30ebd96a7be8e68fe50a3c701db28a91436490b7d53870ca4826040516103619190611210565b60405180910390a250565b60035481565b606080606080600060025467ffffffffffffffff8111156103bc577f4e487b7100000000000000000000000000000000000000000000000000000000600052604160045260246000fd5b6040519080825280602002602001820160405280156103ea5781602001602082028036833780820191505090505b509050600060025467ffffffffffffffff811115610431577f4e487b7100000000000000000000000000000000000000000000000000000000600052604160045260246000fd5b60405190808252806020026020018201604052801561046457816020015b606081526020019060019003908161044f5790505b509050600060025467ffffffffffffffff8111156104ab577f4e487b7100000000000000000000000000000000000000000000000000000000600052604160045260246000fd5b6040519080825280602002602001820160405280156104d95781602001602082028036833780820191505090505b509050600060025467ffffffffffffffff811115610520577f4e487b7100000000000000000000000000000000000000000000000000000000600052604160045260246000fd5b60405190808252806020026020018201604052801561055357816020015b606081526020019060019003908161053e5790505b50905060005b60025481101561080257600080600060018461057591906113c3565b8152602001908152602001600020604051806080016040529081600082015481526020016001820180546105a8906114a3565b80601f01602080910402602001604051908101604052809291908181526020018280546105d4906114a3565b80156106215780601f106105f657610100808354040283529160200191610621565b820191906000526020600020905b81548152906001019060200180831161060457829003601f168201915b5050505050815260200160028201548152602001600382018054610644906114a3565b80601f0160208091040260200160405190810160405280929190818152602001828054610670906114a3565b80156106bd5780601f10610692576101008083540402835291602001916106bd565b820191906000526020600020905b8154815290600101906020018083116106a057829003601f168201915b50505050508152505090508060000151868381518110610706577f4e487b7100000000000000000000000000000000000000000000000000000000600052603260045260246000fd5b6020026020010181815250508060200151858381518110610750577f4e487b7100000000000000000000000000000000000000000000000000000000600052603260045260246000fd5b60200260200101819052508060400151848381518110610799577f4e487b7100000000000000000000000000000000000000000000000000000000600052603260045260246000fd5b60200260200101818152505080606001518383815181106107e3577f4e487b7100000000000000000000000000000000000000000000000000000000600052603260045260246000fd5b60200260200101819052505080806107fa906114d5565b915050610559565b508383838397509750975097505050505090919293565b60025481565b6000602052806000526040600020600091509050806000015490806001018054610848906114a3565b80601f0160208091040260200160405190810160405280929190818152602001828054610874906114a3565b80156108c15780601f10610896576101008083540402835291602001916108c1565b820191906000526020600020905b8154815290600101906020018083116108a457829003601f168201915b5050505050908060020154908060030180546108dc906114a3565b80601f0160208091040260200160405190810160405280929190818152602001828054610908906114a3565b80156109555780601f1061092a57610100808354040283529160200191610955565b820191906000526020600020905b81548152906001019060200180831161093857829003601f168201915b5050505050905084565b600460009054906101000a900473ffffffffffffffffffffffffffffffffffffffff1673ffffffffffffffffffffffffffffffffffffffff163373ffffffffffffffffffffffffffffffffffffffff16146109ef576040517f08c379a00000000000000000000000000000000000000000000000000000000081526004016109e690611190565b60405180910390fd5b6109f98282610a43565b5050565b600460009054906101000a900473ffffffffffffffffffffffffffffffffffffffff1681565b60016020528060005260406000206000915054906101000a900460ff1681565b6000825111610a87576040517f08c379a0000000000000000000000000000000000000000000000000000000008152600401610a7e906111d0565b60405180910390fd5b6000815111610acb576040517f08c379a0000000000000000000000000000000000000000000000000000000008152600401610ac2906111f0565b60405180910390fd5b60026000815480929190610ade906114d5565b91905055506040518060800160405280600254815260200183815260200160008152602001828152506000806002548152602001908152602001600020600082015181600001556020820151816001019080519060200190610b41929190610bad565b50604082015181600201556060820151816003019080519060200190610b68929190610bad565b509050507fe64f834082661dd9ed89427b87edb6270fd6dad17198b0938f0edd058914c87f6002548383604051610ba19392919061122b565b60405180910390a15050565b828054610bb9906114a3565b90600052602060002090601f016020900481019282610bdb5760008555610c22565b82601f10610bf457805160ff1916838001178555610c22565b82800160010185558215610c22579182015b82811115610c21578251825591602001919060010190610c06565b5b509050610c2f9190610c33565b5090565b5b80821115610c4c576000816000905550600101610c34565b5090565b6000610c63610c5e846112f4565b6112c3565b905082815260208101848484011115610c7b57600080fd5b610c86848285611461565b509392505050565b600081359050610c9d816115bc565b92915050565b600082601f830112610cb457600080fd5b8135610cc4848260208601610c50565b91505092915050565b600081359050610cdc816115d3565b92915050565b600060208284031215610cf457600080fd5b6000610d0284828501610c8e565b91505092915050565b60008060408385031215610d1e57600080fd5b600083013567ffffffffffffffff811115610d3857600080fd5b610d4485828601610ca3565b925050602083013567ffffffffffffffff811115610d6157600080fd5b610d6d85828601610ca3565b9150509250929050565b600060208284031215610d8957600080fd5b6000610d9784828501610ccd565b91505092915050565b6000610dac8383610ebd565b905092915050565b6000610dc083836110bb565b60208301905092915050565b610dd581611419565b82525050565b6000610de682611344565b610df0818561137f565b935083602082028501610e0285611324565b8060005b85811015610e3e5784840389528151610e1f8582610da0565b9450610e2a83611365565b925060208a01995050600181019050610e06565b50829750879550505050505092915050565b6000610e5b8261134f565b610e658185611390565b9350610e7083611334565b8060005b83811015610ea1578151610e888882610db4565b9750610e9383611372565b925050600181019050610e74565b5085935050505092915050565b610eb78161142b565b82525050565b6000610ec88261135a565b610ed281856113a1565b9350610ee2818560208601611470565b610eeb816115ab565b840191505092915050565b6000610f018261135a565b610f0b81856113b2565b9350610f1b818560208601611470565b610f24816115ab565b840191505092915050565b6000610f3c6017836113b2565b91507f596f75206861766520616c726561647920766f746564210000000000000000006000830152602082019050919050565b6000610f7c6021836113b2565b91507f4f6e6c7920746865206f776e65722063616e206164642063616e64696461746560008301527f73000000000000000000000000000000000000000000000000000000000000006020830152604082019050919050565b6000610fe26012836113b2565b91507f496e76616c69642063616e6469646174652100000000000000000000000000006000830152602082019050919050565b6000611022601e836113b2565b91507f43616e646964617465206e616d652063616e6e6f7420626520656d70747900006000830152602082019050919050565b60006110626023836113b2565b91507f43616e64696461746520696d616765506174682063616e6e6f7420626520656d60008301527f70747900000000000000000000000000000000000000000000000000000000006020830152604082019050919050565b6110c481611457565b82525050565b6110d381611457565b82525050565b60006020820190506110ee6000830184610dcc565b92915050565b6000608082019050818103600083015261110e8187610e50565b905081810360208301526111228186610ddb565b905081810360408301526111368185610e50565b9050818103606083015261114a8184610ddb565b905095945050505050565b600060208201905061116a6000830184610eae565b92915050565b6000602082019050818103600083015261118981610f2f565b9050919050565b600060208201905081810360008301526111a981610f6f565b9050919050565b600060208201905081810360008301526111c981610fd5565b9050919050565b600060208201905081810360008301526111e981611015565b9050919050565b6000602082019050818103600083015261120981611055565b9050919050565b600060208201905061122560008301846110ca565b92915050565b600060608201905061124060008301866110ca565b81810360208301526112528185610ef6565b905081810360408301526112668184610ef6565b9050949350505050565b600060808201905061128560008301876110ca565b81810360208301526112978186610ef6565b90506112a660408301856110ca565b81810360608301526112b88184610ef6565b905095945050505050565b6000604051905081810181811067ffffffffffffffff821117156112ea576112e961157c565b5b8060405250919050565b600067ffffffffffffffff82111561130f5761130e61157c565b5b601f19601f8301169050602081019050919050565b6000819050602082019050919050565b6000819050602082019050919050565b600081519050919050565b600081519050919050565b600081519050919050565b6000602082019050919050565b6000602082019050919050565b600082825260208201905092915050565b600082825260208201905092915050565b600082825260208201905092915050565b600082825260208201905092915050565b60006113ce82611457565b91506113d983611457565b9250827fffffffffffffffffffffffffffffffffffffffffffffffffffffffffffffffff0382111561140e5761140d61151e565b5b828201905092915050565b600061142482611437565b9050919050565b60008115159050919050565b600073ffffffffffffffffffffffffffffffffffffffff82169050919050565b6000819050919050565b82818337600083830152505050565b60005b8381101561148e578082015181840152602081019050611473565b8381111561149d576000848401525b50505050565b600060028204905060018216806114bb57607f821691505b602082108114156114cf576114ce61154d565b5b50919050565b60006114e082611457565b91507fffffffffffffffffffffffffffffffffffffffffffffffffffffffffffffffff8214156115135761151261151e565b5b600182019050919050565b7f4e487b7100000000000000000000000000000000000000000000000000000000600052601160045260246000fd5b7f4e487b7100000000000000000000000000000000000000000000000000000000600052602260045260246000fd5b7f4e487b7100000000000000000000000000000000000000000000000000000000600052604160045260246000fd5b6000601f19601f8301169050919050565b6115c581611419565b81146115d057600080fd5b50565b6115dc81611457565b81146115e757600080fd5b5056fea264697066735822122026a87371acf66e7e1f7b7f42204269c382a96d258b49af33a61697c2082cd75a64736f6c63430008000033",
  "immutableReferences": {},
  "source": "// SPDX-License-Identifier: MIT\r\npragma solidity ^0.8.0;\r\n\r\ncontract Voting {\r\n    struct Candidate {\r\n        uint id;\r\n        string name;\r\n        uint voteCount;\r\n        string imagePath; // Chemin relatif ou nom de fichier de l'image\r\n    }\r\n\r\n    mapping(uint => Candidate) public candidates;\r\n    mapping(address => bool) public voters;\r\n    uint public candidatesCount;\r\n    uint public totalVotes;\r\n    address public owner;\r\n\r\n    event Voted(address indexed voter, uint candidateId);\r\n    event CandidateAdded(uint candidateId, string name, string imagePath);\r\n\r\n    modifier onlyOwner() {\r\n        require(msg.sender == owner, \"Only the owner can add candidates\");\r\n        _;\r\n    }\r\n\r\n    constructor() {\r\n        owner = msg.sender; \r\n        addCandidate(\"Candidat 1\", \"images/candidate1.jpg\");\r\n        addCandidate(\"Candidat 2\", \"images/candidate2.jpg\");\r\n        addCandidate(\"Candidat 3\", \"images/candidate3.jpg\");\r\n        addCandidate(\"Candidat 4\", \"images/candidate4.jpg\");\r\n        addCandidate(\"Candidat 5\", \"images/candidate5.jpg\");\r\n    }\r\n\r\n    function addCandidate(string memory _name, string memory _imagePath) private {\r\n        require(bytes(_name).length > 0, \"Candidate name cannot be empty\");\r\n        require(bytes(_imagePath).length > 0, \"Candidate imagePath cannot be empty\");\r\n        candidatesCount++;\r\n        candidates[candidatesCount] = Candidate(candidatesCount, _name, 0, _imagePath);\r\n        emit CandidateAdded(candidatesCount, _name, _imagePath);\r\n    }\r\n\r\n    // Fonction publique pour ajouter un candidat, accessible uniquement par le propritaire\r\n    function addNewCandidate(string memory _name, string memory _imagePath) public onlyOwner {\r\n        addCandidate(_name, _imagePath);\r\n    }\r\n\r\n    // Fonction pour voter pour un candidat\r\n    function vote(uint _candidateId) public {\r\n        // Vrifie si l'adresse a dj vot\r\n        require(!voters[msg.sender], \"You have already voted!\");\r\n\r\n        // Vrifie si le candidat existe\r\n        require(_candidateId > 0 && _candidateId <= candidatesCount, \"Invalid candidate!\");\r\n\r\n        // Marque l'adresse comme ayant vot\r\n        voters[msg.sender] = true;\r\n\r\n        // Augmente le compteur de votes du candidat\r\n        candidates[_candidateId].voteCount++;\r\n        totalVotes++;\r\n\r\n        // met un vnement pour signaler qu'un vote a t effectu\r\n        emit Voted(msg.sender, _candidateId);\r\n    }\r\n\r\n    // Fonction pour obtenir les rsultats des candidats\r\n    function getCandidatesDetails() public view returns (\r\n        uint[] memory, \r\n        string[] memory, \r\n        uint[] memory, \r\n        string[] memory\r\n    ) {\r\n        uint[] memory ids = new uint[](candidatesCount);\r\n        string[] memory names = new string[](candidatesCount);\r\n        uint[] memory voteCounts = new uint[](candidatesCount);\r\n        string[] memory imagePaths = new string[](candidatesCount);\r\n\r\n        for (uint i = 0; i < candidatesCount; i++) {\r\n            Candidate memory candidate = candidates[i + 1];\r\n            ids[i] = candidate.id;\r\n            names[i] = candidate.name;\r\n            voteCounts[i] = candidate.voteCount;\r\n            imagePaths[i] = candidate.imagePath;\r\n        }\r\n\r\n        return (ids, names, voteCounts, imagePaths);\r\n    }\r\n}\r\n\r\n\r\n\r\n\r\n\r\n\r\n\r\n\r\n",
  "sourcePath": "C:\\Users\\ASUS\\Desktop\\decentralized-voting\\contracts\\voting.sol",
  "compiler": {
    "name": "solc",
    "version": "0.8.0+commit.c7dfd78e.Emscripten.clang"
  },
  "schemaVersion": "3.4.16",
  "updatedAt": "2024-12-05T10:43:57.223Z",
  "networkType": "ethereum",
  "devdoc": {
    "kind": "dev",
    "methods": {},
    "version": 1
  },
  "userdoc": {
    "kind": "user",
    "methods": {},
    "version": 1
  }
}